{
  "_format": "hh-sol-artifact-1",
  "contractName": "OnChainAsciiApes",
  "sourceName": "contracts/OnChainAsciiApes.sol",
  "abi": [
    {
      "inputs": [
        {
          "internalType": "address",
          "name": "_apeGeneratorContractAddress",
          "type": "address"
        },
        {
          "internalType": "address",
          "name": "_accessControlContractAddress",
          "type": "address"
        },
        {
          "internalType": "uint256",
          "name": "_mintPriceWei",
          "type": "uint256"
        }
      ],
      "stateMutability": "nonpayable",
      "type": "constructor"
    },
    {
      "anonymous": false,
      "inputs": [
        {
          "indexed": true,
          "internalType": "address",
          "name": "owner",
          "type": "address"
        },
        {
          "indexed": true,
          "internalType": "address",
          "name": "approved",
          "type": "address"
        },
        {
          "indexed": true,
          "internalType": "uint256",
          "name": "tokenId",
          "type": "uint256"
        }
      ],
      "name": "Approval",
      "type": "event"
    },
    {
      "anonymous": false,
      "inputs": [
        {
          "indexed": true,
          "internalType": "address",
          "name": "owner",
          "type": "address"
        },
        {
          "indexed": true,
          "internalType": "address",
          "name": "operator",
          "type": "address"
        },
        {
          "indexed": false,
          "internalType": "bool",
          "name": "approved",
          "type": "bool"
        }
      ],
      "name": "ApprovalForAll",
      "type": "event"
    },
    {
      "anonymous": false,
      "inputs": [
        {
          "indexed": true,
          "internalType": "address",
          "name": "previousOwner",
          "type": "address"
        },
        {
          "indexed": true,
          "internalType": "address",
          "name": "newOwner",
          "type": "address"
        }
      ],
      "name": "OwnershipTransferred",
      "type": "event"
    },
    {
      "anonymous": false,
      "inputs": [
        {
          "indexed": true,
          "internalType": "address",
          "name": "from",
          "type": "address"
        },
        {
          "indexed": true,
          "internalType": "address",
          "name": "to",
          "type": "address"
        },
        {
          "indexed": true,
          "internalType": "uint256",
          "name": "tokenId",
          "type": "uint256"
        }
      ],
      "name": "Transfer",
      "type": "event"
    },
    {
      "inputs": [
        {
          "internalType": "address",
          "name": "to",
          "type": "address"
        },
        {
          "internalType": "uint256",
          "name": "tokenId",
          "type": "uint256"
        }
      ],
      "name": "approve",
      "outputs": [],
      "stateMutability": "nonpayable",
      "type": "function"
    },
    {
      "inputs": [
        {
          "internalType": "address",
          "name": "owner",
          "type": "address"
        }
      ],
      "name": "balanceOf",
      "outputs": [
        {
          "internalType": "uint256",
          "name": "",
          "type": "uint256"
        }
      ],
      "stateMutability": "view",
      "type": "function"
    },
    {
      "inputs": [
        {
          "internalType": "address",
          "name": "_addressToBeChecked",
          "type": "address"
        }
      ],
      "name": "checkIfWhitelisted",
      "outputs": [
        {
          "internalType": "bool",
          "name": "",
          "type": "bool"
        }
      ],
      "stateMutability": "view",
      "type": "function"
    },
    {
      "inputs": [],
      "name": "enablePublicMint",
      "outputs": [],
      "stateMutability": "nonpayable",
      "type": "function"
    },
    {
      "inputs": [],
      "name": "endMint",
      "outputs": [],
      "stateMutability": "nonpayable",
      "type": "function"
    },
    {
      "inputs": [
        {
          "internalType": "uint256",
          "name": "tokenId",
          "type": "uint256"
        }
      ],
      "name": "getApproved",
      "outputs": [
        {
          "internalType": "address",
          "name": "",
          "type": "address"
        }
      ],
      "stateMutability": "view",
      "type": "function"
    },
    {
      "inputs": [],
      "name": "getBalance",
      "outputs": [
        {
          "internalType": "uint256",
          "name": "",
          "type": "uint256"
        }
      ],
      "stateMutability": "view",
      "type": "function"
    },
    {
      "inputs": [],
      "name": "getNrOfLeftTokens",
      "outputs": [
        {
          "internalType": "uint256",
          "name": "",
          "type": "uint256"
        }
      ],
      "stateMutability": "view",
      "type": "function"
    },
    {
      "inputs": [
        {
          "internalType": "address",
          "name": "owner",
          "type": "address"
        },
        {
          "internalType": "address",
          "name": "operator",
          "type": "address"
        }
      ],
      "name": "isApprovedForAll",
      "outputs": [
        {
          "internalType": "bool",
          "name": "",
          "type": "bool"
        }
      ],
      "stateMutability": "view",
      "type": "function"
    },
    {
      "inputs": [
        {
          "internalType": "address",
          "name": "_apeGeneratorContractAddress",
          "type": "address"
        }
      ],
      "name": "linkApeGenerator",
      "outputs": [],
      "stateMutability": "nonpayable",
      "type": "function"
    },
    {
      "inputs": [
        {
          "internalType": "uint256",
          "name": "_wantedQuantity",
          "type": "uint256"
        }
      ],
      "name": "mint",
      "outputs": [],
      "stateMutability": "payable",
      "type": "function"
    },
    {
      "inputs": [],
      "name": "name",
      "outputs": [
        {
          "internalType": "string",
          "name": "",
          "type": "string"
        }
      ],
      "stateMutability": "view",
      "type": "function"
    },
    {
      "inputs": [],
      "name": "owner",
      "outputs": [
        {
          "internalType": "address",
          "name": "",
          "type": "address"
        }
      ],
      "stateMutability": "view",
      "type": "function"
    },
    {
      "inputs": [
        {
          "internalType": "uint256",
          "name": "tokenId",
          "type": "uint256"
        }
      ],
      "name": "ownerOf",
      "outputs": [
        {
          "internalType": "address",
          "name": "",
          "type": "address"
        }
      ],
      "stateMutability": "view",
      "type": "function"
    },
    {
      "inputs": [],
      "name": "renounceOwnership",
      "outputs": [],
      "stateMutability": "nonpayable",
      "type": "function"
    },
    {
      "inputs": [
        {
          "internalType": "address",
          "name": "from",
          "type": "address"
        },
        {
          "internalType": "address",
          "name": "to",
          "type": "address"
        },
        {
          "internalType": "uint256",
          "name": "tokenId",
          "type": "uint256"
        }
      ],
      "name": "safeTransferFrom",
      "outputs": [],
      "stateMutability": "nonpayable",
      "type": "function"
    },
    {
      "inputs": [
        {
          "internalType": "address",
          "name": "from",
          "type": "address"
        },
        {
          "internalType": "address",
          "name": "to",
          "type": "address"
        },
        {
          "internalType": "uint256",
          "name": "tokenId",
          "type": "uint256"
        },
        {
          "internalType": "bytes",
          "name": "_data",
          "type": "bytes"
        }
      ],
      "name": "safeTransferFrom",
      "outputs": [],
      "stateMutability": "nonpayable",
      "type": "function"
    },
    {
      "inputs": [
        {
          "internalType": "address",
          "name": "operator",
          "type": "address"
        },
        {
          "internalType": "bool",
          "name": "approved",
          "type": "bool"
        }
      ],
      "name": "setApprovalForAll",
      "outputs": [],
      "stateMutability": "nonpayable",
      "type": "function"
    },
    {
      "inputs": [
        {
          "internalType": "bytes4",
          "name": "interfaceId",
          "type": "bytes4"
        }
      ],
      "name": "supportsInterface",
      "outputs": [
        {
          "internalType": "bool",
          "name": "",
          "type": "bool"
        }
      ],
      "stateMutability": "view",
      "type": "function"
    },
    {
      "inputs": [],
      "name": "symbol",
      "outputs": [
        {
          "internalType": "string",
          "name": "",
          "type": "string"
        }
      ],
      "stateMutability": "view",
      "type": "function"
    },
    {
      "inputs": [
        {
          "internalType": "uint256",
          "name": "index",
          "type": "uint256"
        }
      ],
      "name": "tokenByIndex",
      "outputs": [
        {
          "internalType": "uint256",
          "name": "",
          "type": "uint256"
        }
      ],
      "stateMutability": "view",
      "type": "function"
    },
    {
      "inputs": [
        {
          "internalType": "address",
          "name": "owner",
          "type": "address"
        },
        {
          "internalType": "uint256",
          "name": "index",
          "type": "uint256"
        }
      ],
      "name": "tokenOfOwnerByIndex",
      "outputs": [
        {
          "internalType": "uint256",
          "name": "",
          "type": "uint256"
        }
      ],
      "stateMutability": "view",
      "type": "function"
    },
    {
      "inputs": [
        {
          "internalType": "uint256",
          "name": "_tokenId",
          "type": "uint256"
        }
      ],
      "name": "tokenURI",
      "outputs": [
        {
          "internalType": "string",
          "name": "",
          "type": "string"
        }
      ],
      "stateMutability": "view",
      "type": "function"
    },
    {
      "inputs": [],
      "name": "totalSupply",
      "outputs": [
        {
          "internalType": "uint256",
          "name": "",
          "type": "uint256"
        }
      ],
      "stateMutability": "view",
      "type": "function"
    },
    {
      "inputs": [
        {
          "internalType": "address",
          "name": "from",
          "type": "address"
        },
        {
          "internalType": "address",
          "name": "to",
          "type": "address"
        },
        {
          "internalType": "uint256",
          "name": "tokenId",
          "type": "uint256"
        }
      ],
      "name": "transferFrom",
      "outputs": [],
      "stateMutability": "nonpayable",
      "type": "function"
    },
    {
      "inputs": [
        {
          "internalType": "address",
          "name": "newOwner",
          "type": "address"
        }
      ],
      "name": "transferOwnership",
      "outputs": [],
      "stateMutability": "nonpayable",
      "type": "function"
    },
    {
      "inputs": [],
      "name": "withdraw",
      "outputs": [],
      "stateMutability": "nonpayable",
      "type": "function"
    }
  ],
  "bytecode": "0x60806040523480156200001157600080fd5b50604051620051f4380380620051f48339818101604052810190620000379190620004c2565b6040518060400160405280601081526020017f4f6e436861696e417363696941706573000000000000000000000000000000008152506040518060400160405280600481526020017f4f434141000000000000000000000000000000000000000000000000000000008152508160009080519060200190620000bb929190620003e4565b508060019080519060200190620000d4929190620003e4565b505050620000f7620000eb620001a660201b60201c565b620001ae60201b60201c565b6001600b81905550336001436200010f91906200064f565b40426040516020016200012593929190620005b7565b6040516020818303038152906040528051906020012060001c600f81905550806010819055506200015c836200027460201b60201c565b81600c60006101000a81548173ffffffffffffffffffffffffffffffffffffffff021916908373ffffffffffffffffffffffffffffffffffffffff1602179055505050506200085b565b600033905090565b6000600a60009054906101000a900473ffffffffffffffffffffffffffffffffffffffff16905081600a60006101000a81548173ffffffffffffffffffffffffffffffffffffffff021916908373ffffffffffffffffffffffffffffffffffffffff1602179055508173ffffffffffffffffffffffffffffffffffffffff168173ffffffffffffffffffffffffffffffffffffffff167f8be0079c531659141344cd1fd0a4f28419497f9722a3daafe3b4186f6b6457e060405160405180910390a35050565b62000284620001a660201b60201c565b73ffffffffffffffffffffffffffffffffffffffff16620002aa620003ba60201b60201c565b73ffffffffffffffffffffffffffffffffffffffff161462000303576040517f08c379a0000000000000000000000000000000000000000000000000000000008152600401620002fa90620005fa565b60405180910390fd5b600073ffffffffffffffffffffffffffffffffffffffff168173ffffffffffffffffffffffffffffffffffffffff16141562000376576040517f08c379a00000000000000000000000000000000000000000000000000000000081526004016200036d906200061c565b60405180910390fd5b80600d60006101000a81548173ffffffffffffffffffffffffffffffffffffffff021916908373ffffffffffffffffffffffffffffffffffffffff16021790555050565b6000600a60009054906101000a900473ffffffffffffffffffffffffffffffffffffffff16905090565b828054620003f290620006d2565b90600052602060002090601f01602090048101928262000416576000855562000462565b82601f106200043157805160ff191683800117855562000462565b8280016001018555821562000462579182015b828111156200046157825182559160200191906001019062000444565b5b50905062000471919062000475565b5090565b5b808211156200049057600081600090555060010162000476565b5090565b600081519050620004a58162000827565b92915050565b600081519050620004bc8162000841565b92915050565b600080600060608486031215620004d857600080fd5b6000620004e88682870162000494565b9350506020620004fb8682870162000494565b92505060406200050e86828701620004ab565b9150509250925092565b6200052d62000527826200068a565b62000708565b82525050565b6200054862000542826200069e565b6200071c565b82525050565b60006200055d6020836200063e565b91506200056a82620007af565b602082019050919050565b6000620005846025836200063e565b91506200059182620007d8565b604082019050919050565b620005b1620005ab82620006c8565b6200073a565b82525050565b6000620005c5828662000518565b601482019150620005d7828562000533565b602082019150620005e982846200059c565b602082019150819050949350505050565b6000602082019050818103600083015262000615816200054e565b9050919050565b60006020820190508181036000830152620006378162000575565b9050919050565b600082825260208201905092915050565b60006200065c82620006c8565b91506200066983620006c8565b9250828210156200067f576200067e62000744565b5b828203905092915050565b60006200069782620006a8565b9050919050565b6000819050919050565b600073ffffffffffffffffffffffffffffffffffffffff82169050919050565b6000819050919050565b60006002820490506001821680620006eb57607f821691505b6020821081141562000702576200070162000773565b5b50919050565b6000620007158262000726565b9050919050565b6000819050919050565b60006200073382620007a2565b9050919050565b6000819050919050565b7f4e487b7100000000000000000000000000000000000000000000000000000000600052601160045260246000fd5b7f4e487b7100000000000000000000000000000000000000000000000000000000600052602260045260246000fd5b60008160601b9050919050565b7f4f776e61626c653a2063616c6c6572206973206e6f7420746865206f776e6572600082015250565b7f61706547656e657261746f7220636f6e7472616374206164647265737320696e60008201527f76616c6964000000000000000000000000000000000000000000000000000000602082015250565b62000832816200068a565b81146200083e57600080fd5b50565b6200084c81620006c8565b81146200085857600080fd5b50565b614989806200086b6000396000f3fe60806040526004361061019c5760003560e01c80634f6ccce7116100ec578063a0712d681161008a578063c87b56dd11610064578063c87b56dd146105a5578063d62f3b1c146105e2578063e985e9c5146105f9578063f2fde38b146106365761019c565b8063a0712d6814610537578063a22cb46514610553578063b88d4fde1461057c5761019c565b806370a08231116100c657806370a082311461048d578063715018a6146104ca5780638da5cb5b146104e157806395d89b411461050c5761019c565b80634f6ccce7146103e85780636352211e1461042557806364efeb5b146104625761019c565b806318160ddd116101595780632f745c59116101335780632f745c59146103425780633918ad401461037f5780633ccfd60b146103a857806342842e0e146103bf5761019c565b806318160ddd146102b157806323b872dd146102dc5780632660a92e146103055761019c565b8063017043a5146101a157806301ffc9a7146101b857806306fdde03146101f5578063081812fc14610220578063095ea7b31461025d57806312065fe014610286575b600080fd5b3480156101ad57600080fd5b506101b661065f565b005b3480156101c457600080fd5b506101df60048036038101906101da919061328e565b610794565b6040516101ec91906138f0565b60405180910390f35b34801561020157600080fd5b5061020a61080e565b604051610217919061390b565b60405180910390f35b34801561022c57600080fd5b5061024760048036038101906102429190613321565b6108a0565b6040516102549190613889565b60405180910390f35b34801561026957600080fd5b50610284600480360381019061027f9190613229565b610925565b005b34801561029257600080fd5b5061029b610a3d565b6040516102a89190613c6d565b60405180910390f35b3480156102bd57600080fd5b506102c6610a45565b6040516102d39190613c6d565b60405180910390f35b3480156102e857600080fd5b5061030360048036038101906102fe9190613123565b610aec565b005b34801561031157600080fd5b5061032c600480360381019061032791906130be565b610b4c565b60405161033991906138f0565b60405180910390f35b34801561034e57600080fd5b5061036960048036038101906103649190613229565b610c05565b6040516103769190613c6d565b60405180910390f35b34801561038b57600080fd5b506103a660048036038101906103a191906130be565b610caa565b005b3480156103b457600080fd5b506103bd610dda565b005b3480156103cb57600080fd5b506103e660048036038101906103e19190613123565b610ee2565b005b3480156103f457600080fd5b5061040f600480360381019061040a9190613321565b610f02565b60405161041c9190613c6d565b60405180910390f35b34801561043157600080fd5b5061044c60048036038101906104479190613321565b610f99565b6040516104599190613889565b60405180910390f35b34801561046e57600080fd5b5061047761104b565b6040516104849190613c6d565b60405180910390f35b34801561049957600080fd5b506104b460048036038101906104af91906130be565b611106565b6040516104c19190613c6d565b60405180910390f35b3480156104d657600080fd5b506104df6111be565b005b3480156104ed57600080fd5b506104f6611246565b6040516105039190613889565b60405180910390f35b34801561051857600080fd5b50610521611270565b60405161052e919061390b565b60405180910390f35b610551600480360381019061054c9190613321565b611302565b005b34801561055f57600080fd5b5061057a600480360381019061057591906131ed565b6114be565b005b34801561058857600080fd5b506105a3600480360381019061059e9190613172565b6114d4565b005b3480156105b157600080fd5b506105cc60048036038101906105c79190613321565b611536565b6040516105d9919061390b565b60405180910390f35b3480156105ee57600080fd5b506105f7611637565b005b34801561060557600080fd5b50610620600480360381019061061b91906130e7565b6116d0565b60405161062d91906138f0565b60405180910390f35b34801561064257600080fd5b5061065d600480360381019061065891906130be565b611764565b005b61066761185c565b73ffffffffffffffffffffffffffffffffffffffff16610685611246565b73ffffffffffffffffffffffffffffffffffffffff16146106db576040517f08c379a00000000000000000000000000000000000000000000000000000000081526004016106d290613b6d565b60405180910390fd5b600d60009054906101000a900473ffffffffffffffffffffffffffffffffffffffff1673ffffffffffffffffffffffffffffffffffffffff166302120c06610723600e611864565b6040518263ffffffff1660e01b815260040161073f9190613ca3565b602060405180830381600087803b15801561075957600080fd5b505af115801561076d573d6000803e3d6000fd5b505050506040513d601f19601f820116820180604052508101906107919190613373565b50565b60007f780e9d63000000000000000000000000000000000000000000000000000000007bffffffffffffffffffffffffffffffffffffffffffffffffffffffff1916827bffffffffffffffffffffffffffffffffffffffffffffffffffffffff19161480610807575061080682611872565b5b9050919050565b60606000805461081d90614067565b80601f016020809104026020016040519081016040528092919081815260200182805461084990614067565b80156108965780601f1061086b57610100808354040283529160200191610896565b820191906000526020600020905b81548152906001019060200180831161087957829003601f168201915b5050505050905090565b60006108ab82611954565b6108ea576040517f08c379a00000000000000000000000000000000000000000000000000000000081526004016108e190613b4d565b60405180910390fd5b6004600083815260200190815260200160002060009054906101000a900473ffffffffffffffffffffffffffffffffffffffff169050919050565b600061093082610f99565b90508073ffffffffffffffffffffffffffffffffffffffff168373ffffffffffffffffffffffffffffffffffffffff1614156109a1576040517f08c379a000000000000000000000000000000000000000000000000000000000815260040161099890613bad565b60405180910390fd5b8073ffffffffffffffffffffffffffffffffffffffff166109c061185c565b73ffffffffffffffffffffffffffffffffffffffff1614806109ef57506109ee816109e961185c565b6116d0565b5b610a2e576040517f08c379a0000000000000000000000000000000000000000000000000000000008152600401610a2590613acd565b60405180910390fd5b610a3883836119c0565b505050565b600047905090565b6000600d60009054906101000a900473ffffffffffffffffffffffffffffffffffffffff1673ffffffffffffffffffffffffffffffffffffffff166318160ddd6040518163ffffffff1660e01b815260040160206040518083038186803b158015610aaf57600080fd5b505afa158015610ac3573d6000803e3d6000fd5b505050506040513d601f19601f82011682018060405250810190610ae7919061334a565b905090565b610afd610af761185c565b82611a79565b610b3c576040517f08c379a0000000000000000000000000000000000000000000000000000000008152600401610b3390613bcd565b60405180910390fd5b610b47838383611b57565b505050565b600080600c60009054906101000a900473ffffffffffffffffffffffffffffffffffffffff1690508073ffffffffffffffffffffffffffffffffffffffff16636f175502846040518263ffffffff1660e01b8152600401610bad9190613889565b60206040518083038186803b158015610bc557600080fd5b505afa158015610bd9573d6000803e3d6000fd5b505050506040513d601f19601f82011682018060405250810190610bfd9190613265565b915050919050565b6000610c1083611106565b8210610c51576040517f08c379a0000000000000000000000000000000000000000000000000000000008152600401610c489061392d565b60405180910390fd5b600660008473ffffffffffffffffffffffffffffffffffffffff1673ffffffffffffffffffffffffffffffffffffffff168152602001908152602001600020600083815260200190815260200160002054905092915050565b610cb261185c565b73ffffffffffffffffffffffffffffffffffffffff16610cd0611246565b73ffffffffffffffffffffffffffffffffffffffff1614610d26576040517f08c379a0000000000000000000000000000000000000000000000000000000008152600401610d1d90613b6d565b60405180910390fd5b600073ffffffffffffffffffffffffffffffffffffffff168173ffffffffffffffffffffffffffffffffffffffff161415610d96576040517f08c379a0000000000000000000000000000000000000000000000000000000008152600401610d8d90613c4d565b60405180910390fd5b80600d60006101000a81548173ffffffffffffffffffffffffffffffffffffffff021916908373ffffffffffffffffffffffffffffffffffffffff16021790555050565b610de261185c565b73ffffffffffffffffffffffffffffffffffffffff16610e00611246565b73ffffffffffffffffffffffffffffffffffffffff1614610e56576040517f08c379a0000000000000000000000000000000000000000000000000000000008152600401610e4d90613b6d565b60405180910390fd5b60004711610e99576040517f08c379a0000000000000000000000000000000000000000000000000000000008152600401610e90906139ed565b60405180910390fd5b3373ffffffffffffffffffffffffffffffffffffffff166108fc479081150290604051600060405180830381858888f19350505050158015610edf573d6000803e3d6000fd5b50565b610efd838383604051806020016040528060008152506114d4565b505050565b6000610f0c611dbe565b8210610f4d576040517f08c379a0000000000000000000000000000000000000000000000000000000008152600401610f4490613bed565b60405180910390fd5b60088281548110610f87577f4e487b7100000000000000000000000000000000000000000000000000000000600052603260045260246000fd5b90600052602060002001549050919050565b6000806002600084815260200190815260200160002060009054906101000a900473ffffffffffffffffffffffffffffffffffffffff169050600073ffffffffffffffffffffffffffffffffffffffff168173ffffffffffffffffffffffffffffffffffffffff161415611042576040517f08c379a000000000000000000000000000000000000000000000000000000000815260040161103990613b0d565b60405180910390fd5b80915050919050565b6000611057600e611864565b600d60009054906101000a900473ffffffffffffffffffffffffffffffffffffffff1673ffffffffffffffffffffffffffffffffffffffff166318160ddd6040518163ffffffff1660e01b815260040160206040518083038186803b1580156110bf57600080fd5b505afa1580156110d3573d6000803e3d6000fd5b505050506040513d601f19601f820116820180604052508101906110f7919061334a565b6111019190613f42565b905090565b60008073ffffffffffffffffffffffffffffffffffffffff168273ffffffffffffffffffffffffffffffffffffffff161415611177576040517f08c379a000000000000000000000000000000000000000000000000000000000815260040161116e90613aed565b60405180910390fd5b600360008373ffffffffffffffffffffffffffffffffffffffff1673ffffffffffffffffffffffffffffffffffffffff168152602001908152602001600020549050919050565b6111c661185c565b73ffffffffffffffffffffffffffffffffffffffff166111e4611246565b73ffffffffffffffffffffffffffffffffffffffff161461123a576040517f08c379a000000000000000000000000000000000000000000000000000000000815260040161123190613b6d565b60405180910390fd5b6112446000611dcb565b565b6000600a60009054906101000a900473ffffffffffffffffffffffffffffffffffffffff16905090565b60606001805461127f90614067565b80601f01602080910402602001604051908101604052809291908181526020018280546112ab90614067565b80156112f85780601f106112cd576101008083540402835291602001916112f8565b820191906000526020600020905b8154815290600101906020018083116112db57829003601f168201915b5050505050905090565b6002600b541415611348576040517f08c379a000000000000000000000000000000000000000000000000000000000815260040161133f90613c2d565b60405180910390fd5b6002600b81905550600061135a61104b565b1161139a576040517f08c379a00000000000000000000000000000000000000000000000000000000081526004016113919061396d565b60405180910390fd5b6000811180156113ab575060088111155b80156113be5750806113bb61104b565b10155b6113fd576040517f08c379a00000000000000000000000000000000000000000000000000000000081526004016113f490613aad565b60405180910390fd5b6010548161140b9190613ee8565b34101561144d576040517f08c379a000000000000000000000000000000000000000000000000000000000815260040161144490613a0d565b60405180910390fd5b60005b818110156114b257611460611e91565b61149f576040517f08c379a000000000000000000000000000000000000000000000000000000000815260040161149690613a8d565b60405180910390fd5b80806114aa906140ca565b915050611450565b506001600b8190555050565b6114d06114c961185c565b83836123ec565b5050565b6114e56114df61185c565b83611a79565b611524576040517f08c379a000000000000000000000000000000000000000000000000000000000815260040161151b90613bcd565b60405180910390fd5b61153084848484612559565b50505050565b606061154182611954565b611580576040517f08c379a000000000000000000000000000000000000000000000000000000000815260040161157790613b8d565b60405180910390fd5b600d60009054906101000a900473ffffffffffffffffffffffffffffffffffffffff1673ffffffffffffffffffffffffffffffffffffffff166315efddad836040518263ffffffff1660e01b81526004016115db9190613ca3565b60006040518083038186803b1580156115f357600080fd5b505afa158015611607573d6000803e3d6000fd5b505050506040513d6000823e3d601f19601f8201168201806040525081019061163091906132e0565b9050919050565b61163f61185c565b73ffffffffffffffffffffffffffffffffffffffff1661165d611246565b73ffffffffffffffffffffffffffffffffffffffff16146116b3576040517f08c379a00000000000000000000000000000000000000000000000000000000081526004016116aa90613b6d565b60405180910390fd5b6001600d60146101000a81548160ff021916908315150217905550565b6000600560008473ffffffffffffffffffffffffffffffffffffffff1673ffffffffffffffffffffffffffffffffffffffff16815260200190815260200160002060008373ffffffffffffffffffffffffffffffffffffffff1673ffffffffffffffffffffffffffffffffffffffff16815260200190815260200160002060009054906101000a900460ff16905092915050565b61176c61185c565b73ffffffffffffffffffffffffffffffffffffffff1661178a611246565b73ffffffffffffffffffffffffffffffffffffffff16146117e0576040517f08c379a00000000000000000000000000000000000000000000000000000000081526004016117d790613b6d565b60405180910390fd5b600073ffffffffffffffffffffffffffffffffffffffff168173ffffffffffffffffffffffffffffffffffffffff161415611850576040517f08c379a00000000000000000000000000000000000000000000000000000000081526004016118479061398d565b60405180910390fd5b61185981611dcb565b50565b600033905090565b600081600001549050919050565b60007f80ac58cd000000000000000000000000000000000000000000000000000000007bffffffffffffffffffffffffffffffffffffffffffffffffffffffff1916827bffffffffffffffffffffffffffffffffffffffffffffffffffffffff1916148061193d57507f5b5e139f000000000000000000000000000000000000000000000000000000007bffffffffffffffffffffffffffffffffffffffffffffffffffffffff1916827bffffffffffffffffffffffffffffffffffffffffffffffffffffffff1916145b8061194d575061194c826125b5565b5b9050919050565b60008073ffffffffffffffffffffffffffffffffffffffff166002600084815260200190815260200160002060009054906101000a900473ffffffffffffffffffffffffffffffffffffffff1673ffffffffffffffffffffffffffffffffffffffff1614159050919050565b816004600083815260200190815260200160002060006101000a81548173ffffffffffffffffffffffffffffffffffffffff021916908373ffffffffffffffffffffffffffffffffffffffff160217905550808273ffffffffffffffffffffffffffffffffffffffff16611a3383610f99565b73ffffffffffffffffffffffffffffffffffffffff167f8c5be1e5ebec7d5bd14f71427d1e84f3dd0314c0f7b2291e5b200ac8c7c3b92560405160405180910390a45050565b6000611a8482611954565b611ac3576040517f08c379a0000000000000000000000000000000000000000000000000000000008152600401611aba90613a6d565b60405180910390fd5b6000611ace83610f99565b90508073ffffffffffffffffffffffffffffffffffffffff168473ffffffffffffffffffffffffffffffffffffffff161480611b105750611b0f81856116d0565b5b80611b4e57508373ffffffffffffffffffffffffffffffffffffffff16611b36846108a0565b73ffffffffffffffffffffffffffffffffffffffff16145b91505092915050565b8273ffffffffffffffffffffffffffffffffffffffff16611b7782610f99565b73ffffffffffffffffffffffffffffffffffffffff1614611bcd576040517f08c379a0000000000000000000000000000000000000000000000000000000008152600401611bc4906139ad565b60405180910390fd5b600073ffffffffffffffffffffffffffffffffffffffff168273ffffffffffffffffffffffffffffffffffffffff161415611c3d576040517f08c379a0000000000000000000000000000000000000000000000000000000008152600401611c3490613a2d565b60405180910390fd5b611c4883838361261f565b611c536000826119c0565b6001600360008573ffffffffffffffffffffffffffffffffffffffff1673ffffffffffffffffffffffffffffffffffffffff1681526020019081526020016000206000828254611ca39190613f42565b925050819055506001600360008473ffffffffffffffffffffffffffffffffffffffff1673ffffffffffffffffffffffffffffffffffffffff1681526020019081526020016000206000828254611cfa9190613e5b565b92505081905550816002600083815260200190815260200160002060006101000a81548173ffffffffffffffffffffffffffffffffffffffff021916908373ffffffffffffffffffffffffffffffffffffffff160217905550808273ffffffffffffffffffffffffffffffffffffffff168473ffffffffffffffffffffffffffffffffffffffff167fddf252ad1be2c89b69c2b068fc378daa952ba7f163c4a11628f55a4df523b3ef60405160405180910390a4611db9838383612733565b505050565b6000600880549050905090565b6000600a60009054906101000a900473ffffffffffffffffffffffffffffffffffffffff16905081600a60006101000a81548173ffffffffffffffffffffffffffffffffffffffff021916908373ffffffffffffffffffffffffffffffffffffffff1602179055508173ffffffffffffffffffffffffffffffffffffffff168173ffffffffffffffffffffffffffffffffffffffff167f8be0079c531659141344cd1fd0a4f28419497f9722a3daafe3b4186f6b6457e060405160405180910390a35050565b6000600d60149054906101000a900460ff161580611ecb57506003611eb4610a45565b611ebe9190613f42565b611ec8600e611864565b10155b15611f1957611ed933610b4c565b611f18576040517f08c379a0000000000000000000000000000000000000000000000000000000008152600401611f0f90613c0d565b60405180910390fd5b5b600080611f26600e611864565b90506000600d60009054906101000a900473ffffffffffffffffffffffffffffffffffffffff1673ffffffffffffffffffffffffffffffffffffffff16632c588cb3836040518263ffffffff1660e01b8152600401611f859190613ca3565b60206040518083038186803b158015611f9d57600080fd5b505afa158015611fb1573d6000803e3d6000fd5b505050506040513d601f19601f82011682018060405250810190611fd59190613373565b905060006040518060400160405280600d81526020017f61706547656e206661696c6564000000000000000000000000000000000000008152509050600161201b610a45565b6120259190613e5b565b8260ff161461214757600d60009054906101000a900473ffffffffffffffffffffffffffffffffffffffff1673ffffffffffffffffffffffffffffffffffffffff166351836b4983600080600088600061207f6028612738565b603c61208b9190613eb1565b6040518863ffffffff1660e01b81526004016120ad9796959493929190613cbe565b602060405180830381600087803b1580156120c757600080fd5b505af11580156120db573d6000803e3d6000fd5b505050506040513d601f19601f820116820180604052508101906120ff9190613265565b8190612141576040517f08c379a0000000000000000000000000000000000000000000000000000000008152600401612138919061390b565b60405180910390fd5b5061231e565b6121ef600d60009054906101000a900473ffffffffffffffffffffffffffffffffffffffff1673ffffffffffffffffffffffffffffffffffffffff1663e4a9cd036040518163ffffffff1660e01b815260040160206040518083038186803b1580156121b257600080fd5b505afa1580156121c6573d6000803e3d6000fd5b505050506040513d601f19601f820116820180604052508101906121ea9190613373565b612738565b9350600d60009054906101000a900473ffffffffffffffffffffffffffffffffffffffff1673ffffffffffffffffffffffffffffffffffffffff166351836b49838661223b6003612738565b6122456003612738565b88612250600d612738565b61225a6028612738565b603c6122669190613eb1565b6040518863ffffffff1660e01b81526004016122889796959493929190613d2d565b602060405180830381600087803b1580156122a257600080fd5b505af11580156122b6573d6000803e3d6000fd5b505050506040513d601f19601f820116820180604052508101906122da9190613265565b819061231c576040517f08c379a0000000000000000000000000000000000000000000000000000000008152600401612313919061390b565b60405180910390fd5b505b61232b338460ff16612757565b6001612335610a45565b61233f9190613e5b565b8260ff1614156123d757600d60009054906101000a900473ffffffffffffffffffffffffffffffffffffffff1673ffffffffffffffffffffffffffffffffffffffff16632f3d41ff856040518263ffffffff1660e01b81526004016123a49190613c88565b600060405180830381600087803b1580156123be57600080fd5b505af11580156123d2573d6000803e3d6000fd5b505050505b6123e1600e612775565b600194505050505090565b8173ffffffffffffffffffffffffffffffffffffffff168373ffffffffffffffffffffffffffffffffffffffff16141561245b576040517f08c379a000000000000000000000000000000000000000000000000000000000815260040161245290613a4d565b60405180910390fd5b80600560008573ffffffffffffffffffffffffffffffffffffffff1673ffffffffffffffffffffffffffffffffffffffff16815260200190815260200160002060008473ffffffffffffffffffffffffffffffffffffffff1673ffffffffffffffffffffffffffffffffffffffff16815260200190815260200160002060006101000a81548160ff0219169083151502179055508173ffffffffffffffffffffffffffffffffffffffff168373ffffffffffffffffffffffffffffffffffffffff167f17307eab39ab6107e8899845ad3d59bd9653f200f220920489ca2b5937696c318360405161254c91906138f0565b60405180910390a3505050565b612564848484611b57565b6125708484848461278b565b6125af576040517f08c379a00000000000000000000000000000000000000000000000000000000081526004016125a69061394d565b60405180910390fd5b50505050565b60007f01ffc9a7000000000000000000000000000000000000000000000000000000007bffffffffffffffffffffffffffffffffffffffffffffffffffffffff1916827bffffffffffffffffffffffffffffffffffffffffffffffffffffffff1916149050919050565b61262a838383612922565b600073ffffffffffffffffffffffffffffffffffffffff168373ffffffffffffffffffffffffffffffffffffffff16141561266d5761266881612927565b6126ac565b8173ffffffffffffffffffffffffffffffffffffffff168373ffffffffffffffffffffffffffffffffffffffff16146126ab576126aa8382612970565b5b5b600073ffffffffffffffffffffffffffffffffffffffff168273ffffffffffffffffffffffffffffffffffffffff1614156126ef576126ea81612add565b61272e565b8273ffffffffffffffffffffffffffffffffffffffff168273ffffffffffffffffffffffffffffffffffffffff161461272d5761272c8282612c20565b5b5b505050565b505050565b60008160ff16612746612c9f565b612750919061414b565b9050919050565b612771828260405180602001604052806000815250612cee565b5050565b6001816000016000828254019250508190555050565b60006127ac8473ffffffffffffffffffffffffffffffffffffffff16612d49565b15612915578373ffffffffffffffffffffffffffffffffffffffff1663150b7a026127d561185c565b8786866040518563ffffffff1660e01b81526004016127f794939291906138a4565b602060405180830381600087803b15801561281157600080fd5b505af192505050801561284257506040513d601f19601f8201168201806040525081019061283f91906132b7565b60015b6128c5573d8060008114612872576040519150601f19603f3d011682016040523d82523d6000602084013e612877565b606091505b506000815114156128bd576040517f08c379a00000000000000000000000000000000000000000000000000000000081526004016128b49061394d565b60405180910390fd5b805181602001fd5b63150b7a0260e01b7bffffffffffffffffffffffffffffffffffffffffffffffffffffffff1916817bffffffffffffffffffffffffffffffffffffffffffffffffffffffff19161491505061291a565b600190505b949350505050565b505050565b6008805490506009600083815260200190815260200160002081905550600881908060018154018082558091505060019003906000526020600020016000909190919091505550565b6000600161297d84611106565b6129879190613f42565b9050600060076000848152602001908152602001600020549050818114612a6c576000600660008673ffffffffffffffffffffffffffffffffffffffff1673ffffffffffffffffffffffffffffffffffffffff168152602001908152602001600020600084815260200190815260200160002054905080600660008773ffffffffffffffffffffffffffffffffffffffff1673ffffffffffffffffffffffffffffffffffffffff168152602001908152602001600020600084815260200190815260200160002081905550816007600083815260200190815260200160002081905550505b6007600084815260200190815260200160002060009055600660008573ffffffffffffffffffffffffffffffffffffffff1673ffffffffffffffffffffffffffffffffffffffff16815260200190815260200160002060008381526020019081526020016000206000905550505050565b60006001600880549050612af19190613f42565b9050600060096000848152602001908152602001600020549050600060088381548110612b47577f4e487b7100000000000000000000000000000000000000000000000000000000600052603260045260246000fd5b906000526020600020015490508060088381548110612b8f577f4e487b7100000000000000000000000000000000000000000000000000000000600052603260045260246000fd5b906000526020600020018190555081600960008381526020019081526020016000208190555060096000858152602001908152602001600020600090556008805480612c04577f4e487b7100000000000000000000000000000000000000000000000000000000600052603160045260246000fd5b6001900381819060005260206000200160009055905550505050565b6000612c2b83611106565b905081600660008573ffffffffffffffffffffffffffffffffffffffff1673ffffffffffffffffffffffffffffffffffffffff168152602001908152602001600020600083815260200190815260200160002081905550806007600084815260200190815260200160002081905550505050565b600033600143612caf9190613f42565b4042600f54604051602001612cc7949392919061383b565b6040516020818303038152906040528051906020012060001c600f81905550600f54905090565b612cf88383612d6c565b612d05600084848461278b565b612d44576040517f08c379a0000000000000000000000000000000000000000000000000000000008152600401612d3b9061394d565b60405180910390fd5b505050565b6000808273ffffffffffffffffffffffffffffffffffffffff163b119050919050565b600073ffffffffffffffffffffffffffffffffffffffff168273ffffffffffffffffffffffffffffffffffffffff161415612ddc576040517f08c379a0000000000000000000000000000000000000000000000000000000008152600401612dd390613b2d565b60405180910390fd5b612de581611954565b15612e25576040517f08c379a0000000000000000000000000000000000000000000000000000000008152600401612e1c906139cd565b60405180910390fd5b612e316000838361261f565b6001600360008473ffffffffffffffffffffffffffffffffffffffff1673ffffffffffffffffffffffffffffffffffffffff1681526020019081526020016000206000828254612e819190613e5b565b92505081905550816002600083815260200190815260200160002060006101000a81548173ffffffffffffffffffffffffffffffffffffffff021916908373ffffffffffffffffffffffffffffffffffffffff160217905550808273ffffffffffffffffffffffffffffffffffffffff16600073ffffffffffffffffffffffffffffffffffffffff167fddf252ad1be2c89b69c2b068fc378daa952ba7f163c4a11628f55a4df523b3ef60405160405180910390a4612f4260008383612733565b5050565b6000612f59612f5484613dc1565b613d9c565b905082815260208101848484011115612f7157600080fd5b612f7c848285614025565b509392505050565b6000612f97612f9284613df2565b613d9c565b905082815260208101848484011115612faf57600080fd5b612fba848285614034565b509392505050565b600081359050612fd1816148e0565b92915050565b600081359050612fe6816148f7565b92915050565b600081519050612ffb816148f7565b92915050565b6000813590506130108161490e565b92915050565b6000815190506130258161490e565b92915050565b600082601f83011261303c57600080fd5b813561304c848260208601612f46565b91505092915050565b600082601f83011261306657600080fd5b8151613076848260208601612f84565b91505092915050565b60008135905061308e81614925565b92915050565b6000815190506130a381614925565b92915050565b6000815190506130b88161493c565b92915050565b6000602082840312156130d057600080fd5b60006130de84828501612fc2565b91505092915050565b600080604083850312156130fa57600080fd5b600061310885828601612fc2565b925050602061311985828601612fc2565b9150509250929050565b60008060006060848603121561313857600080fd5b600061314686828701612fc2565b935050602061315786828701612fc2565b92505060406131688682870161307f565b9150509250925092565b6000806000806080858703121561318857600080fd5b600061319687828801612fc2565b94505060206131a787828801612fc2565b93505060406131b88782880161307f565b925050606085013567ffffffffffffffff8111156131d557600080fd5b6131e18782880161302b565b91505092959194509250565b6000806040838503121561320057600080fd5b600061320e85828601612fc2565b925050602061321f85828601612fd7565b9150509250929050565b6000806040838503121561323c57600080fd5b600061324a85828601612fc2565b925050602061325b8582860161307f565b9150509250929050565b60006020828403121561327757600080fd5b600061328584828501612fec565b91505092915050565b6000602082840312156132a057600080fd5b60006132ae84828501613001565b91505092915050565b6000602082840312156132c957600080fd5b60006132d784828501613016565b91505092915050565b6000602082840312156132f257600080fd5b600082015167ffffffffffffffff81111561330c57600080fd5b61331884828501613055565b91505092915050565b60006020828403121561333357600080fd5b60006133418482850161307f565b91505092915050565b60006020828403121561335c57600080fd5b600061336a84828501613094565b91505092915050565b60006020828403121561338557600080fd5b6000613393848285016130a9565b91505092915050565b6133a581613f76565b82525050565b6133bc6133b782613f76565b614113565b82525050565b6133cb81613f88565b82525050565b6133e26133dd82613f94565b614125565b82525050565b60006133f382613e23565b6133fd8185613e39565b935061340d818560208601614034565b61341681614238565b840191505092915050565b61342a81614001565b82525050565b600061343b82613e2e565b6134458185613e4a565b9350613455818560208601614034565b61345e81614238565b840191505092915050565b6000613476602b83613e4a565b915061348182614256565b604082019050919050565b6000613499603283613e4a565b91506134a4826142a5565b604082019050919050565b60006134bc602283613e4a565b91506134c7826142f4565b604082019050919050565b60006134df602683613e4a565b91506134ea82614343565b604082019050919050565b6000613502602583613e4a565b915061350d82614392565b604082019050919050565b6000613525601c83613e4a565b9150613530826143e1565b602082019050919050565b6000613548601283613e4a565b91506135538261440a565b602082019050919050565b600061356b601783613e4a565b915061357682614433565b602082019050919050565b600061358e602483613e4a565b91506135998261445c565b604082019050919050565b60006135b1601983613e4a565b91506135bc826144ab565b602082019050919050565b60006135d4602c83613e4a565b91506135df826144d4565b604082019050919050565b60006135f7600b83613e4a565b915061360282614523565b602082019050919050565b600061361a601083613e4a565b91506136258261454c565b602082019050919050565b600061363d603883613e4a565b915061364882614575565b604082019050919050565b6000613660602a83613e4a565b915061366b826145c4565b604082019050919050565b6000613683602983613e4a565b915061368e82614613565b604082019050919050565b60006136a6602083613e4a565b91506136b182614662565b602082019050919050565b60006136c9602c83613e4a565b91506136d48261468b565b604082019050919050565b60006136ec602083613e4a565b91506136f7826146da565b602082019050919050565b600061370f602f83613e4a565b915061371a82614703565b604082019050919050565b6000613732602183613e4a565b915061373d82614752565b604082019050919050565b6000613755603183613e4a565b9150613760826147a1565b604082019050919050565b6000613778602c83613e4a565b9150613783826147f0565b604082019050919050565b600061379b600f83613e4a565b91506137a68261483f565b602082019050919050565b60006137be601f83613e4a565b91506137c982614868565b602082019050919050565b60006137e1602583613e4a565b91506137ec82614891565b604082019050919050565b61380081613fea565b82525050565b61381761381282613fea565b614141565b82525050565b61382681614013565b82525050565b61383581613ff4565b82525050565b600061384782876133ab565b60148201915061385782866133d1565b6020820191506138678285613806565b6020820191506138778284613806565b60208201915081905095945050505050565b600060208201905061389e600083018461339c565b92915050565b60006080820190506138b9600083018761339c565b6138c6602083018661339c565b6138d360408301856137f7565b81810360608301526138e581846133e8565b905095945050505050565b600060208201905061390560008301846133c2565b92915050565b600060208201905081810360008301526139258184613430565b905092915050565b6000602082019050818103600083015261394681613469565b9050919050565b600060208201905081810360008301526139668161348c565b9050919050565b60006020820190508181036000830152613986816134af565b9050919050565b600060208201905081810360008301526139a6816134d2565b9050919050565b600060208201905081810360008301526139c6816134f5565b9050919050565b600060208201905081810360008301526139e681613518565b9050919050565b60006020820190508181036000830152613a068161353b565b9050919050565b60006020820190508181036000830152613a268161355e565b9050919050565b60006020820190508181036000830152613a4681613581565b9050919050565b60006020820190508181036000830152613a66816135a4565b9050919050565b60006020820190508181036000830152613a86816135c7565b9050919050565b60006020820190508181036000830152613aa6816135ea565b9050919050565b60006020820190508181036000830152613ac68161360d565b9050919050565b60006020820190508181036000830152613ae681613630565b9050919050565b60006020820190508181036000830152613b0681613653565b9050919050565b60006020820190508181036000830152613b2681613676565b9050919050565b60006020820190508181036000830152613b4681613699565b9050919050565b60006020820190508181036000830152613b66816136bc565b9050919050565b60006020820190508181036000830152613b86816136df565b9050919050565b60006020820190508181036000830152613ba681613702565b9050919050565b60006020820190508181036000830152613bc681613725565b9050919050565b60006020820190508181036000830152613be681613748565b9050919050565b60006020820190508181036000830152613c068161376b565b9050919050565b60006020820190508181036000830152613c268161378e565b9050919050565b60006020820190508181036000830152613c46816137b1565b9050919050565b60006020820190508181036000830152613c66816137d4565b9050919050565b6000602082019050613c8260008301846137f7565b92915050565b6000602082019050613c9d600083018461381d565b92915050565b6000602082019050613cb8600083018461382c565b92915050565b600060e082019050613cd3600083018a61382c565b613ce06020830189613421565b613ced6040830188613421565b613cfa6060830187613421565b613d07608083018661382c565b613d1460a0830185613421565b613d2160c083018461382c565b98975050505050505050565b600060e082019050613d42600083018a61382c565b613d4f602083018961382c565b613d5c604083018861382c565b613d69606083018761382c565b613d76608083018661382c565b613d8360a083018561382c565b613d9060c083018461382c565b98975050505050505050565b6000613da6613db7565b9050613db28282614099565b919050565b6000604051905090565b600067ffffffffffffffff821115613ddc57613ddb614209565b5b613de582614238565b9050602081019050919050565b600067ffffffffffffffff821115613e0d57613e0c614209565b5b613e1682614238565b9050602081019050919050565b600081519050919050565b600081519050919050565b600082825260208201905092915050565b600082825260208201905092915050565b6000613e6682613fea565b9150613e7183613fea565b9250827fffffffffffffffffffffffffffffffffffffffffffffffffffffffffffffffff03821115613ea657613ea561417c565b5b828201905092915050565b6000613ebc82613ff4565b9150613ec783613ff4565b92508260ff03821115613edd57613edc61417c565b5b828201905092915050565b6000613ef382613fea565b9150613efe83613fea565b9250817fffffffffffffffffffffffffffffffffffffffffffffffffffffffffffffffff0483118215151615613f3757613f3661417c565b5b828202905092915050565b6000613f4d82613fea565b9150613f5883613fea565b925082821015613f6b57613f6a61417c565b5b828203905092915050565b6000613f8182613fca565b9050919050565b60008115159050919050565b6000819050919050565b60007fffffffff0000000000000000000000000000000000000000000000000000000082169050919050565b600073ffffffffffffffffffffffffffffffffffffffff82169050919050565b6000819050919050565b600060ff82169050919050565b600061400c82613ff4565b9050919050565b600061401e82613ff4565b9050919050565b82818337600083830152505050565b60005b83811015614052578082015181840152602081019050614037565b83811115614061576000848401525b50505050565b6000600282049050600182168061407f57607f821691505b60208210811415614093576140926141da565b5b50919050565b6140a282614238565b810181811067ffffffffffffffff821117156140c1576140c0614209565b5b80604052505050565b60006140d582613fea565b91507fffffffffffffffffffffffffffffffffffffffffffffffffffffffffffffffff8214156141085761410761417c565b5b600182019050919050565b600061411e8261412f565b9050919050565b6000819050919050565b600061413a82614249565b9050919050565b6000819050919050565b600061415682613fea565b915061416183613fea565b925082614171576141706141ab565b5b828206905092915050565b7f4e487b7100000000000000000000000000000000000000000000000000000000600052601160045260246000fd5b7f4e487b7100000000000000000000000000000000000000000000000000000000600052601260045260246000fd5b7f4e487b7100000000000000000000000000000000000000000000000000000000600052602260045260246000fd5b7f4e487b7100000000000000000000000000000000000000000000000000000000600052604160045260246000fd5b6000601f19601f8301169050919050565b60008160601b9050919050565b7f455243373231456e756d657261626c653a206f776e657220696e646578206f7560008201527f74206f6620626f756e6473000000000000000000000000000000000000000000602082015250565b7f4552433732313a207472616e7366657220746f206e6f6e20455243373231526560008201527f63656976657220696d706c656d656e7465720000000000000000000000000000602082015250565b7f6d696e746564206f75742c20636865636b207365636f6e64617279206d61726b60008201527f6574000000000000000000000000000000000000000000000000000000000000602082015250565b7f4f776e61626c653a206e6577206f776e657220697320746865207a65726f206160008201527f6464726573730000000000000000000000000000000000000000000000000000602082015250565b7f4552433732313a207472616e736665722066726f6d20696e636f72726563742060008201527f6f776e6572000000000000000000000000000000000000000000000000000000602082015250565b7f4552433732313a20746f6b656e20616c7265616479206d696e74656400000000600082015250565b7f636f6e74726163742062616c616e63653d300000000000000000000000000000600082015250565b7f53656e742065746820616d6f756e7420746f6f206c6f77000000000000000000600082015250565b7f4552433732313a207472616e7366657220746f20746865207a65726f2061646460008201527f7265737300000000000000000000000000000000000000000000000000000000602082015250565b7f4552433732313a20617070726f766520746f2063616c6c657200000000000000600082015250565b7f4552433732313a206f70657261746f7220717565727920666f72206e6f6e657860008201527f697374656e7420746f6b656e0000000000000000000000000000000000000000602082015250565b7f6d696e74206661696c6564000000000000000000000000000000000000000000600082015250565b7f696e76616c6964207175616e7469747900000000000000000000000000000000600082015250565b7f4552433732313a20617070726f76652063616c6c6572206973206e6f74206f7760008201527f6e6572206e6f7220617070726f76656420666f7220616c6c0000000000000000602082015250565b7f4552433732313a2062616c616e636520717565727920666f7220746865207a6560008201527f726f206164647265737300000000000000000000000000000000000000000000602082015250565b7f4552433732313a206f776e657220717565727920666f72206e6f6e657869737460008201527f656e7420746f6b656e0000000000000000000000000000000000000000000000602082015250565b7f4552433732313a206d696e7420746f20746865207a65726f2061646472657373600082015250565b7f4552433732313a20617070726f76656420717565727920666f72206e6f6e657860008201527f697374656e7420746f6b656e0000000000000000000000000000000000000000602082015250565b7f4f776e61626c653a2063616c6c6572206973206e6f7420746865206f776e6572600082015250565b7f4552433732314d657461646174613a2055524920717565727920666f72206e6f60008201527f6e6578697374656e7420746f6b656e0000000000000000000000000000000000602082015250565b7f4552433732313a20617070726f76616c20746f2063757272656e74206f776e6560008201527f7200000000000000000000000000000000000000000000000000000000000000602082015250565b7f4552433732313a207472616e736665722063616c6c6572206973206e6f74206f60008201527f776e6572206e6f7220617070726f766564000000000000000000000000000000602082015250565b7f455243373231456e756d657261626c653a20676c6f62616c20696e646578206f60008201527f7574206f6620626f756e64730000000000000000000000000000000000000000602082015250565b7f6e6f742077686974656c69737465640000000000000000000000000000000000600082015250565b7f5265656e7472616e637947756172643a207265656e7472616e742063616c6c00600082015250565b7f61706547656e657261746f7220636f6e7472616374206164647265737320696e60008201527f76616c6964000000000000000000000000000000000000000000000000000000602082015250565b6148e981613f76565b81146148f457600080fd5b50565b61490081613f88565b811461490b57600080fd5b50565b61491781613f9e565b811461492257600080fd5b50565b61492e81613fea565b811461493957600080fd5b50565b61494581613ff4565b811461495057600080fd5b5056fea264697066735822122060fd740c2b8f8e11d96ce8958dee14b1fc808547332c1c6401b1befb7dc2a20064736f6c63430008040033",
  "linkReferences": {},
  "deployedLinkReferences": {}
}