{
  "_format": "hh-sol-artifact-1",
  "contractName": "Raffle",
  "sourceName": "contracts/Raffle.sol",
  "abi": [
    {
      "anonymous": false,
      "inputs": [
        {
          "indexed": true,
          "internalType": "address",
          "name": "previousOwner",
          "type": "address"
        },
        {
          "indexed": true,
          "internalType": "address",
          "name": "newOwner",
          "type": "address"
        }
      ],
      "name": "OwnershipTransferred",
      "type": "event"
    },
    {
      "anonymous": false,
      "inputs": [
        {
          "indexed": false,
          "internalType": "address[]",
          "name": "_winners",
          "type": "address[]"
        }
      ],
      "name": "winnerAnnounced",
      "type": "event"
    },
    {
      "inputs": [
        {
          "internalType": "address",
          "name": "_addressToBeAdded",
          "type": "address"
        }
      ],
      "name": "addAddress",
      "outputs": [],
      "stateMutability": "nonpayable",
      "type": "function"
    },
    {
      "inputs": [
        {
          "internalType": "uint256",
          "name": "_nrOfWantedWinners",
          "type": "uint256"
        }
      ],
      "name": "chooseRaffleWinners",
      "outputs": [],
      "stateMutability": "nonpayable",
      "type": "function"
    },
    {
      "inputs": [],
      "name": "endRaffle",
      "outputs": [],
      "stateMutability": "nonpayable",
      "type": "function"
    },
    {
      "inputs": [],
      "name": "getAddedAddresses",
      "outputs": [
        {
          "internalType": "address[]",
          "name": "",
          "type": "address[]"
        }
      ],
      "stateMutability": "view",
      "type": "function"
    },
    {
      "inputs": [],
      "name": "getCreatedMultipleNumber",
      "outputs": [
        {
          "internalType": "uint256[]",
          "name": "",
          "type": "uint256[]"
        }
      ],
      "stateMutability": "view",
      "type": "function"
    },
    {
      "inputs": [
        {
          "internalType": "address",
          "name": "_addressToBeChecked",
          "type": "address"
        }
      ],
      "name": "getMappingValue",
      "outputs": [
        {
          "internalType": "uint256",
          "name": "",
          "type": "uint256"
        }
      ],
      "stateMutability": "view",
      "type": "function"
    },
    {
      "inputs": [],
      "name": "getNrOfAddedAddresses",
      "outputs": [
        {
          "internalType": "uint256",
          "name": "",
          "type": "uint256"
        }
      ],
      "stateMutability": "view",
      "type": "function"
    },
    {
      "inputs": [],
      "name": "getRaffleWinners",
      "outputs": [
        {
          "internalType": "address[]",
          "name": "",
          "type": "address[]"
        }
      ],
      "stateMutability": "view",
      "type": "function"
    },
    {
      "inputs": [],
      "name": "owner",
      "outputs": [
        {
          "internalType": "address",
          "name": "",
          "type": "address"
        }
      ],
      "stateMutability": "view",
      "type": "function"
    },
    {
      "inputs": [
        {
          "internalType": "address",
          "name": "_addressToRemove",
          "type": "address"
        }
      ],
      "name": "removeAddressFromAccessAllowed",
      "outputs": [],
      "stateMutability": "nonpayable",
      "type": "function"
    },
    {
      "inputs": [],
      "name": "removeAllFromAccessAllowed",
      "outputs": [],
      "stateMutability": "nonpayable",
      "type": "function"
    },
    {
      "inputs": [],
      "name": "renounceOwnership",
      "outputs": [],
      "stateMutability": "nonpayable",
      "type": "function"
    },
    {
      "inputs": [
        {
          "internalType": "bool",
          "name": "_removeLeft",
          "type": "bool"
        }
      ],
      "name": "restartRaflle",
      "outputs": [],
      "stateMutability": "nonpayable",
      "type": "function"
    },
    {
      "inputs": [
        {
          "internalType": "address",
          "name": "newOwner",
          "type": "address"
        }
      ],
      "name": "transferOwnership",
      "outputs": [],
      "stateMutability": "nonpayable",
      "type": "function"
    }
  ],
  "bytecode": "0x60806040526040518060c001604052806040518060400160405280600381526020017f547279000000000000000000000000000000000000000000000000000000000081525081526020016040518060400160405280600281526020017f4f6600000000000000000000000000000000000000000000000000000000000081525081526020016040518060400160405280600781526020017f47657474696e670000000000000000000000000000000000000000000000000081525081526020016040518060400160405280600481526020017f536f6d650000000000000000000000000000000000000000000000000000000081525081526020016040518060400160405280600481526020017f4d6f72650000000000000000000000000000000000000000000000000000000081525081526020016040518060400160405280600a81526020017f52616e646f6d6e6573730000000000000000000000000000000000000000000081525081525060059060066200018192919062000282565b503480156200018f57600080fd5b50620001b0620001a4620001b660201b60201c565b620001be60201b60201c565b6200046c565b600033905090565b60008060009054906101000a900473ffffffffffffffffffffffffffffffffffffffff169050816000806101000a81548173ffffffffffffffffffffffffffffffffffffffff021916908373ffffffffffffffffffffffffffffffffffffffff1602179055508173ffffffffffffffffffffffffffffffffffffffff168173ffffffffffffffffffffffffffffffffffffffff167f8be0079c531659141344cd1fd0a4f28419497f9722a3daafe3b4186f6b6457e060405160405180910390a35050565b828054828255906000526020600020908101928215620002d6579160200282015b82811115620002d5578251829080519060200190620002c4929190620002e9565b5091602001919060010190620002a3565b5b509050620002e591906200037a565b5090565b828054620002f79062000407565b90600052602060002090601f0160209004810192826200031b576000855562000367565b82601f106200033657805160ff191683800117855562000367565b8280016001018555821562000367579182015b828111156200036657825182559160200191906001019062000349565b5b509050620003769190620003a2565b5090565b5b808211156200039e5760008181620003949190620003c1565b506001016200037b565b5090565b5b80821115620003bd576000816000905550600101620003a3565b5090565b508054620003cf9062000407565b6000825580601f10620003e3575062000404565b601f016020900490600052602060002090810190620004039190620003a2565b5b50565b600060028204905060018216806200042057607f821691505b602082108114156200043757620004366200043d565b5b50919050565b7f4e487b7100000000000000000000000000000000000000000000000000000000600052602260045260246000fd5b61220c806200047c6000396000f3fe608060405234801561001057600080fd5b50600436106100ea5760003560e01c80637b450c911161008c578063b5f5d24511610066578063b5f5d245146101ff578063ce1f3b8d1461021d578063ee095c0e14610239578063f2fde38b14610243576100ea565b80637b450c91146101a55780637f44e004146101c35780638da5cb5b146101e1576100ea565b806364291c69116100c857806364291c69146101455780637054fb041461014f578063715018a61461017f5780637b218fbd14610189576100ea565b8063366e535e146100ef57806338eada1c1461010d57806358cc27db14610129575b600080fd5b6100f761025f565b6040516101049190611b2b565b60405180910390f35b610127600480360381019061012291906116ae565b6102ed565b005b610143600480360381019061013e9190611700565b6104d9565b005b61014d6107d0565b005b610169600480360381019061016491906116ae565b6108f4565b6040516101769190611cb1565b60405180910390f35b61018761093d565b005b6101a3600480360381019061019e91906116ae565b6109c5565b005b6101ad610c09565b6040516101ba9190611b6f565b60405180910390f35b6101cb610c61565b6040516101d89190611cb1565b60405180910390f35b6101e9610c6e565b6040516101f69190611b10565b60405180910390f35b610207610c97565b6040516102149190611b2b565b60405180910390f35b610237600480360381019061023291906116d7565b610d25565b005b610241610e46565b005b61025d600480360381019061025891906116ae565b610f2f565b005b606060028054806020026020016040519081016040528092919081815260200182805480156102e357602002820191906000526020600020905b8160009054906101000a900473ffffffffffffffffffffffffffffffffffffffff1673ffffffffffffffffffffffffffffffffffffffff1681526020019060010190808311610299575b5050505050905090565b600460009054906101000a900460ff161561033d576040517f08c379a000000000000000000000000000000000000000000000000000000000815260040161033490611c91565b60405180910390fd5b600073ffffffffffffffffffffffffffffffffffffffff168173ffffffffffffffffffffffffffffffffffffffff1614156103ad576040517f08c379a00000000000000000000000000000000000000000000000000000000081526004016103a490611bb1565b60405180910390fd5b6000600160008373ffffffffffffffffffffffffffffffffffffffff1673ffffffffffffffffffffffffffffffffffffffff168152602001908152602001600020541461042f576040517f08c379a000000000000000000000000000000000000000000000000000000000815260040161042690611c31565b60405180910390fd5b6002819080600181540180825580915050600190039060005260206000200160009091909190916101000a81548173ffffffffffffffffffffffffffffffffffffffff021916908373ffffffffffffffffffffffffffffffffffffffff16021790555060018060008373ffffffffffffffffffffffffffffffffffffffff1673ffffffffffffffffffffffffffffffffffffffff1681526020019081526020016000208190555050565b6104e1611027565b73ffffffffffffffffffffffffffffffffffffffff166104ff610c6e565b73ffffffffffffffffffffffffffffffffffffffff1614610555576040517f08c379a000000000000000000000000000000000000000000000000000000000815260040161054c90611c11565b60405180910390fd5b600460009054906101000a900460ff166105a4576040517f08c379a000000000000000000000000000000000000000000000000000000000815260040161059b90611c71565b60405180910390fd5b600460019054906101000a900460ff16156105f4576040517f08c379a00000000000000000000000000000000000000000000000000000000081526004016105eb90611bd1565b60405180910390fd5b60028054905081106106f05760005b6002805490508110156106ea5760036002828154811061064c577f4e487b7100000000000000000000000000000000000000000000000000000000600052603260045260246000fd5b9060005260206000200160009054906101000a900473ffffffffffffffffffffffffffffffffffffffff169080600181540180825580915050600190039060005260206000200160009091909190916101000a81548173ffffffffffffffffffffffffffffffffffffffff021916908373ffffffffffffffffffffffffffffffffffffffff16021790555080806106e290611e8e565b915050610603565b5061077a565b60005b8181101561077857600361070561102f565b9080600181540180825580915050600190039060005260206000200160009091909190916101000a81548173ffffffffffffffffffffffffffffffffffffffff021916908373ffffffffffffffffffffffffffffffffffffffff160217905550808061077090611e8e565b9150506106f3565b505b6001600460016101000a81548160ff0219169083151502179055507ff5ccf891d4743f7a04e11d52a37fd1d6636a6435843ce6bed6c12e4f6594b6c860036040516107c59190611b4d565b60405180910390a150565b6107d8611027565b73ffffffffffffffffffffffffffffffffffffffff166107f6610c6e565b73ffffffffffffffffffffffffffffffffffffffff161461084c576040517f08c379a000000000000000000000000000000000000000000000000000000000815260040161084390611c11565b60405180910390fd5b6000600280549050905060005b818110156108e2576108cf600260008154811061089f577f4e487b7100000000000000000000000000000000000000000000000000000000600052603260045260246000fd5b9060005260206000200160009054906101000a900473ffffffffffffffffffffffffffffffffffffffff166109c5565b80806108da90611e8e565b915050610859565b50600260006108f19190611631565b50565b6000600160008373ffffffffffffffffffffffffffffffffffffffff1673ffffffffffffffffffffffffffffffffffffffff168152602001908152602001600020549050919050565b610945611027565b73ffffffffffffffffffffffffffffffffffffffff16610963610c6e565b73ffffffffffffffffffffffffffffffffffffffff16146109b9576040517f08c379a00000000000000000000000000000000000000000000000000000000081526004016109b090611c11565b60405180910390fd5b6109c3600061113c565b565b6109cd611027565b73ffffffffffffffffffffffffffffffffffffffff166109eb610c6e565b73ffffffffffffffffffffffffffffffffffffffff1614610a41576040517f08c379a0000000000000000000000000000000000000000000000000000000008152600401610a3890611c11565b60405180910390fd5b600073ffffffffffffffffffffffffffffffffffffffff168173ffffffffffffffffffffffffffffffffffffffff161415610ab1576040517f08c379a0000000000000000000000000000000000000000000000000000000008152600401610aa890611bb1565b60405180910390fd5b6000600160008373ffffffffffffffffffffffffffffffffffffffff1673ffffffffffffffffffffffffffffffffffffffff1681526020019081526020016000205411610b33576040517f08c379a0000000000000000000000000000000000000000000000000000000008152600401610b2a90611c51565b60405180910390fd5b60005b600280549050811015610c05578173ffffffffffffffffffffffffffffffffffffffff1660028281548110610b94577f4e487b7100000000000000000000000000000000000000000000000000000000600052603260045260246000fd5b9060005260206000200160009054906101000a900473ffffffffffffffffffffffffffffffffffffffff1673ffffffffffffffffffffffffffffffffffffffff161415610bf257610be482611200565b610bed816112b6565b610c05565b8080610bfd90611e8e565b915050610b36565b5050565b60606007805480602002602001604051908101604052809291908181526020018280548015610c5757602002820191906000526020600020905b815481526020019060010190808311610c43575b5050505050905090565b6000600280549050905090565b60008060009054906101000a900473ffffffffffffffffffffffffffffffffffffffff16905090565b60606003805480602002602001604051908101604052809291908181526020018280548015610d1b57602002820191906000526020600020905b8160009054906101000a900473ffffffffffffffffffffffffffffffffffffffff1673ffffffffffffffffffffffffffffffffffffffff1681526020019060010190808311610cd1575b5050505050905090565b610d2d611027565b73ffffffffffffffffffffffffffffffffffffffff16610d4b610c6e565b73ffffffffffffffffffffffffffffffffffffffff1614610da1576040517f08c379a0000000000000000000000000000000000000000000000000000000008152600401610d9890611c11565b60405180910390fd5b600460009054906101000a900460ff16610df0576040517f08c379a0000000000000000000000000000000000000000000000000000000008152600401610de790611c71565b60405180910390fd5b8015610dff57610dfe6107d0565b5b60036000610e0d9190611631565b6000600460006101000a81548160ff0219169083151502179055506000600460016101000a81548160ff02191690831515021790555050565b610e4e611027565b73ffffffffffffffffffffffffffffffffffffffff16610e6c610c6e565b73ffffffffffffffffffffffffffffffffffffffff1614610ec2576040517f08c379a0000000000000000000000000000000000000000000000000000000008152600401610eb990611c11565b60405180910390fd5b600460009054906101000a900460ff1615610f12576040517f08c379a0000000000000000000000000000000000000000000000000000000008152600401610f0990611c91565b60405180910390fd5b6001600460006101000a81548160ff021916908315150217905550565b610f37611027565b73ffffffffffffffffffffffffffffffffffffffff16610f55610c6e565b73ffffffffffffffffffffffffffffffffffffffff1614610fab576040517f08c379a0000000000000000000000000000000000000000000000000000000008152600401610fa290611c11565b60405180910390fd5b600073ffffffffffffffffffffffffffffffffffffffff168173ffffffffffffffffffffffffffffffffffffffff16141561101b576040517f08c379a000000000000000000000000000000000000000000000000000000000815260040161101290611b91565b60405180910390fd5b6110248161113c565b50565b600033905090565b6000611039611027565b73ffffffffffffffffffffffffffffffffffffffff16611057610c6e565b73ffffffffffffffffffffffffffffffffffffffff16146110ad576040517f08c379a00000000000000000000000000000000000000000000000000000000081526004016110a490611c11565b60405180910390fd5b6000600280805490506110be611502565b6110c89190611f0f565b815481106110ff577f4e487b7100000000000000000000000000000000000000000000000000000000600052603260045260246000fd5b9060005260206000200160009054906101000a900473ffffffffffffffffffffffffffffffffffffffff169050611135816109c5565b8091505090565b60008060009054906101000a900473ffffffffffffffffffffffffffffffffffffffff169050816000806101000a81548173ffffffffffffffffffffffffffffffffffffffff021916908373ffffffffffffffffffffffffffffffffffffffff1602179055508173ffffffffffffffffffffffffffffffffffffffff168173ffffffffffffffffffffffffffffffffffffffff167f8be0079c531659141344cd1fd0a4f28419497f9722a3daafe3b4186f6b6457e060405160405180910390a35050565b600073ffffffffffffffffffffffffffffffffffffffff168173ffffffffffffffffffffffffffffffffffffffff161415611270576040517f08c379a000000000000000000000000000000000000000000000000000000000815260040161126790611bb1565b60405180910390fd5b600160008273ffffffffffffffffffffffffffffffffffffffff1673ffffffffffffffffffffffffffffffffffffffff1681526020019081526020016000206000905550565b600280549050811115806112cf57506000600280549050115b61130e576040517f08c379a000000000000000000000000000000000000000000000000000000000815260040161130590611bf1565b60405180910390fd5b60016002805490506113209190611d9c565b81141561139957600280548061135f577f4e487b7100000000000000000000000000000000000000000000000000000000600052603160045260246000fd5b6001900381819060005260206000200160006101000a81549073ffffffffffffffffffffffffffffffffffffffff021916905590556114ff565b600260016002805490506113ad9190611d9c565b815481106113e4577f4e487b7100000000000000000000000000000000000000000000000000000000600052603260045260246000fd5b9060005260206000200160009054906101000a900473ffffffffffffffffffffffffffffffffffffffff1660028281548110611449577f4e487b7100000000000000000000000000000000000000000000000000000000600052603260045260246000fd5b9060005260206000200160006101000a81548173ffffffffffffffffffffffffffffffffffffffff021916908373ffffffffffffffffffffffffffffffffffffffff16021790555060028054806114c9577f4e487b7100000000000000000000000000000000000000000000000000000000600052603160045260246000fd5b6001900381819060005260206000200160006101000a81549073ffffffffffffffffffffffffffffffffffffffff021916905590555b50565b600061150c611027565b73ffffffffffffffffffffffffffffffffffffffff1661152a610c6e565b73ffffffffffffffffffffffffffffffffffffffff1614611580576040517f08c379a000000000000000000000000000000000000000000000000000000000815260040161157790611c11565b60405180910390fd5b33600580805490506001436115959190611d9c565b4060001c6115a39190611f0f565b815481106115da577f4e487b7100000000000000000000000000000000000000000000000000000000600052603260045260246000fd5b906000526020600020016001436115f19190611d9c565b404260065460405160200161160a959493929190611ab5565b6040516020818303038152906040528051906020012060001c600681905550600654905090565b508054600082559060005260206000209081019061164f9190611652565b50565b5b8082111561166b576000816000905550600101611653565b5090565b60008135905061167e81612191565b92915050565b600081359050611693816121a8565b92915050565b6000813590506116a8816121bf565b92915050565b6000602082840312156116c057600080fd5b60006116ce8482850161166f565b91505092915050565b6000602082840312156116e957600080fd5b60006116f784828501611684565b91505092915050565b60006020828403121561171257600080fd5b600061172084828501611699565b91505092915050565b60006117358383611759565b60208301905092915050565b600061174d8383611a80565b60208301905092915050565b61176281611df0565b82525050565b61177181611df0565b82525050565b61178861178382611df0565b611ed7565b82525050565b600061179982611d16565b6117a38185611d5e565b93506117ae83611ccc565b8060005b838110156117df5781516117c68882611729565b97506117d183611d37565b9250506001810190506117b2565b5085935050505092915050565b60006117f782611d21565b6118018185611d5e565b935061180c83611cdc565b8060005b838110156118445761182182611fcd565b61182b8882611729565b975061183683611d44565b925050600181019050611810565b5085935050505092915050565b600061185c82611d2c565b6118668185611d6f565b935061187183611cf1565b8060005b838110156118a25781516118898882611741565b975061189483611d51565b925050600181019050611875565b5085935050505092915050565b6118c06118bb82611e0e565b611ee9565b82525050565b600081546118d381611e42565b6118dd8186611d91565b945060018216600081146118f857600181146119095761193c565b60ff1983168652818601935061193c565b61191285611d01565b60005b8381101561193457815481890152600182019150602081019050611915565b838801955050505b50505092915050565b6000611952602683611d80565b915061195d82611ffa565b604082019050919050565b6000611975601283611d80565b915061198082612049565b602082019050919050565b6000611998601683611d80565b91506119a382612072565b602082019050919050565b60006119bb601283611d80565b91506119c68261209b565b602082019050919050565b60006119de602083611d80565b91506119e9826120c4565b602082019050919050565b6000611a01601883611d80565b9150611a0c826120ed565b602082019050919050565b6000611a24601783611d80565b9150611a2f82612116565b602082019050919050565b6000611a47601683611d80565b9150611a528261213f565b602082019050919050565b6000611a6a601483611d80565b9150611a7582612168565b602082019050919050565b611a8981611e38565b82525050565b611a9881611e38565b82525050565b611aaf611aaa82611e38565b611f05565b82525050565b6000611ac18288611777565b601482019150611ad182876118c6565b9150611add82866118af565b602082019150611aed8285611a9e565b602082019150611afd8284611a9e565b6020820191508190509695505050505050565b6000602082019050611b256000830184611768565b92915050565b60006020820190508181036000830152611b45818461178e565b905092915050565b60006020820190508181036000830152611b6781846117ec565b905092915050565b60006020820190508181036000830152611b898184611851565b905092915050565b60006020820190508181036000830152611baa81611945565b9050919050565b60006020820190508181036000830152611bca81611968565b9050919050565b60006020820190508181036000830152611bea8161198b565b9050919050565b60006020820190508181036000830152611c0a816119ae565b9050919050565b60006020820190508181036000830152611c2a816119d1565b9050919050565b60006020820190508181036000830152611c4a816119f4565b9050919050565b60006020820190508181036000830152611c6a81611a17565b9050919050565b60006020820190508181036000830152611c8a81611a3a565b9050919050565b60006020820190508181036000830152611caa81611a5d565b9050919050565b6000602082019050611cc66000830184611a8f565b92915050565b6000819050602082019050919050565b60008190508160005260206000209050919050565b6000819050602082019050919050565b60008190508160005260206000209050919050565b600081519050919050565b600081549050919050565b600081519050919050565b6000602082019050919050565b6000600182019050919050565b6000602082019050919050565b600082825260208201905092915050565b600082825260208201905092915050565b600082825260208201905092915050565b600081905092915050565b6000611da782611e38565b9150611db283611e38565b925082821015611dc557611dc4611f40565b5b828203905092915050565b600073ffffffffffffffffffffffffffffffffffffffff82169050919050565b6000611dfb82611e18565b9050919050565b60008115159050919050565b6000819050919050565b600073ffffffffffffffffffffffffffffffffffffffff82169050919050565b6000819050919050565b60006002820490506001821680611e5a57607f821691505b60208210811415611e6e57611e6d611f9e565b5b50919050565b6000611e87611e8283611fed565b611dd0565b9050919050565b6000611e9982611e38565b91507fffffffffffffffffffffffffffffffffffffffffffffffffffffffffffffffff821415611ecc57611ecb611f40565b5b600182019050919050565b6000611ee282611ef3565b9050919050565b6000819050919050565b6000611efe82611fe0565b9050919050565b6000819050919050565b6000611f1a82611e38565b9150611f2583611e38565b925082611f3557611f34611f6f565b5b828206905092915050565b7f4e487b7100000000000000000000000000000000000000000000000000000000600052601160045260246000fd5b7f4e487b7100000000000000000000000000000000000000000000000000000000600052601260045260246000fd5b7f4e487b7100000000000000000000000000000000000000000000000000000000600052602260045260246000fd5b6000611fd98254611e74565b9050919050565b60008160601b9050919050565b60008160001c9050919050565b7f4f776e61626c653a206e6577206f776e657220697320746865207a65726f206160008201527f6464726573730000000000000000000000000000000000000000000000000000602082015250565b7f6e756c6c206164647265737320676976656e0000000000000000000000000000600082015250565b7f57696e6e657220616c72656164792063686f6f73656e00000000000000000000600082015250565b7f696e646578206f7574206f662072616e67650000000000000000000000000000600082015250565b7f4f776e61626c653a2063616c6c6572206973206e6f7420746865206f776e6572600082015250565b7f4164726573732077617320616c72656164792061646465640000000000000000600082015250565b7f61646472657373206e6f7420666f756e64206164646564000000000000000000600082015250565b7f526166666c65206861736e7420656e6465642079657400000000000000000000600082015250565b7f726166666c6520616c726561647920656e646564000000000000000000000000600082015250565b61219a81611df0565b81146121a557600080fd5b50565b6121b181611e02565b81146121bc57600080fd5b50565b6121c881611e38565b81146121d357600080fd5b5056fea26469706673582212202f3f64494a78f1ee88d0b77337641d9c11dd8f9da4609485d8fa6f895cb3f08864736f6c63430008040033",
  "linkReferences": {},
  "deployedLinkReferences": {}
}