{
  "_format": "hh-sol-artifact-1",
  "contractName": "Top3Donators",
  "sourceName": "contracts/Top3Donators.sol",
  "abi": [
    {
      "anonymous": false,
      "inputs": [
        {
          "components": [
            {
              "internalType": "address",
              "name": "donatorAddress",
              "type": "address"
            },
            {
              "internalType": "uint256",
              "name": "donatorValue",
              "type": "uint256"
            }
          ],
          "indexed": false,
          "internalType": "struct Top3Donators.donators[3]",
          "name": "newTop3Donators",
          "type": "tuple[3]"
        }
      ],
      "name": "topDonatorsUpdate",
      "type": "event"
    },
    {
      "inputs": [],
      "name": "donate",
      "outputs": [],
      "stateMutability": "payable",
      "type": "function"
    },
    {
      "inputs": [],
      "name": "getHighestDonators",
      "outputs": [
        {
          "components": [
            {
              "internalType": "address",
              "name": "donatorAddress",
              "type": "address"
            },
            {
              "internalType": "uint256",
              "name": "donatorValue",
              "type": "uint256"
            }
          ],
          "internalType": "struct Top3Donators.donators[3]",
          "name": "",
          "type": "tuple[3]"
        }
      ],
      "stateMutability": "view",
      "type": "function"
    },
    {
      "inputs": [],
      "name": "getMySpendAmount",
      "outputs": [
        {
          "internalType": "uint256",
          "name": "",
          "type": "uint256"
        }
      ],
      "stateMutability": "view",
      "type": "function"
    },
    {
      "inputs": [
        {
          "internalType": "address",
          "name": "_walletAddress",
          "type": "address"
        }
      ],
      "name": "getSpendAmountOfGivenAddress",
      "outputs": [
        {
          "internalType": "uint256",
          "name": "",
          "type": "uint256"
        }
      ],
      "stateMutability": "view",
      "type": "function"
    }
  ],
  "bytecode": "0x608060405234801561001057600080fd5b50611ea6806100206000396000f3fe60806040526004361061003f5760003560e01c80630eac6b4e146100445780632eae62ab1461006f578063dbb4ab131461009a578063ed88c68e146100d7575b600080fd5b34801561005057600080fd5b506100596100e1565b6040516100669190611bf1565b60405180910390f35b34801561007b57600080fd5b50610084610127565b6040516100919190611b7b565b60405180910390f35b3480156100a657600080fd5b506100c160048036038101906100bc919061198c565b6101d9565b6040516100ce9190611bf1565b60405180910390f35b6100df610290565b005b60008060003373ffffffffffffffffffffffffffffffffffffffff1673ffffffffffffffffffffffffffffffffffffffff16815260200190815260200160002054905090565b61012f61191a565b6001600380602002604051908101604052809291906000905b828210156101d0578382600202016040518060400160405290816000820160009054906101000a900473ffffffffffffffffffffffffffffffffffffffff1673ffffffffffffffffffffffffffffffffffffffff1673ffffffffffffffffffffffffffffffffffffffff16815260200160018201548152505081526020019060010190610148565b50505050905090565b60008073ffffffffffffffffffffffffffffffffffffffff168273ffffffffffffffffffffffffffffffffffffffff16141561024a576040517f08c379a000000000000000000000000000000000000000000000000000000000815260040161024190611bd1565b60405180910390fd5b6000808373ffffffffffffffffffffffffffffffffffffffff1673ffffffffffffffffffffffffffffffffffffffff168152602001908152602001600020549050919050565b66038d7ea4c680003410156102da576040517f08c379a00000000000000000000000000000000000000000000000000000000081526004016102d190611bb1565b60405180910390fd5b60006003905060008060003373ffffffffffffffffffffffffffffffffffffffff1673ffffffffffffffffffffffffffffffffffffffff168152602001908152602001600020541461056857346000803373ffffffffffffffffffffffffffffffffffffffff1673ffffffffffffffffffffffffffffffffffffffff16815260200190815260200160002060008282546103749190611c6c565b9250508190555060005b81811015610431573373ffffffffffffffffffffffffffffffffffffffff16600182600381106103d7577f4e487b7100000000000000000000000000000000000000000000000000000000600052603260045260246000fd5b6002020160000160009054906101000a900473ffffffffffffffffffffffffffffffffffffffff1673ffffffffffffffffffffffffffffffffffffffff16141561042057610431565b8061042a90611d5c565b905061037e565b81811015610562576000803373ffffffffffffffffffffffffffffffffffffffff1673ffffffffffffffffffffffffffffffffffffffff16815260200190815260200160002054600182600381106104b2577f4e487b7100000000000000000000000000000000000000000000000000000000600052603260045260246000fd5b600202016001018190555060016000600381106104f8577f4e487b7100000000000000000000000000000000000000000000000000000000600052603260045260246000fd5b6002020160000160009054906101000a900473ffffffffffffffffffffffffffffffffffffffff1673ffffffffffffffffffffffffffffffffffffffff163373ffffffffffffffffffffffffffffffffffffffff161461055b5761055a610754565b5b5050610752565b506105ac565b346000803373ffffffffffffffffffffffffffffffffffffffff1673ffffffffffffffffffffffffffffffffffffffff168152602001908152602001600020819055505b60016000600381106105e7577f4e487b7100000000000000000000000000000000000000000000000000000000600052603260045260246000fd5b60020201600101546000803373ffffffffffffffffffffffffffffffffffffffff1673ffffffffffffffffffffffffffffffffffffffff1681526020019081526020016000205411806106b857506001806003811061066f577f4e487b7100000000000000000000000000000000000000000000000000000000600052603260045260246000fd5b60020201600101546000803373ffffffffffffffffffffffffffffffffffffffff1673ffffffffffffffffffffffffffffffffffffffff16815260200190815260200160002054115b80610742575060016002600381106106f9577f4e487b7100000000000000000000000000000000000000000000000000000000600052603260045260246000fd5b60020201600101546000803373ffffffffffffffffffffffffffffffffffffffff1673ffffffffffffffffffffffffffffffffffffffff16815260200190815260200160002054115b156107505761074f610fee565b5b505b565b61075c611947565b60005b6002811015610fb25760016000600381106107a3577f4e487b7100000000000000000000000000000000000000000000000000000000600052603260045260246000fd5b600202016001015460016002600381106107e6577f4e487b7100000000000000000000000000000000000000000000000000000000600052603260045260246000fd5b60020201600101541115610a2757600160006003811061082f577f4e487b7100000000000000000000000000000000000000000000000000000000600052603260045260246000fd5b600202016040518060400160405290816000820160009054906101000a900473ffffffffffffffffffffffffffffffffffffffff1673ffffffffffffffffffffffffffffffffffffffff1673ffffffffffffffffffffffffffffffffffffffff168152602001600182015481525050915060016002600381106108db577f4e487b7100000000000000000000000000000000000000000000000000000000600052603260045260246000fd5b60020201600160006003811061091a577f4e487b7100000000000000000000000000000000000000000000000000000000600052603260045260246000fd5b600202016000820160009054906101000a900473ffffffffffffffffffffffffffffffffffffffff168160000160006101000a81548173ffffffffffffffffffffffffffffffffffffffff021916908373ffffffffffffffffffffffffffffffffffffffff160217905550600182015481600101559050508160016002600381106109ce577f4e487b7100000000000000000000000000000000000000000000000000000000600052603260045260246000fd5b6002020160008201518160000160006101000a81548173ffffffffffffffffffffffffffffffffffffffff021916908373ffffffffffffffffffffffffffffffffffffffff160217905550602082015181600101559050505b60018060038110610a61577f4e487b7100000000000000000000000000000000000000000000000000000000600052603260045260246000fd5b60020201600101546001600260038110610aa4577f4e487b7100000000000000000000000000000000000000000000000000000000600052603260045260246000fd5b60020201600101541115610ce35760018060038110610aec577f4e487b7100000000000000000000000000000000000000000000000000000000600052603260045260246000fd5b600202016040518060400160405290816000820160009054906101000a900473ffffffffffffffffffffffffffffffffffffffff1673ffffffffffffffffffffffffffffffffffffffff1673ffffffffffffffffffffffffffffffffffffffff16815260200160018201548152505091506001600260038110610b98577f4e487b7100000000000000000000000000000000000000000000000000000000600052603260045260246000fd5b6002020160018060038110610bd6577f4e487b7100000000000000000000000000000000000000000000000000000000600052603260045260246000fd5b600202016000820160009054906101000a900473ffffffffffffffffffffffffffffffffffffffff168160000160006101000a81548173ffffffffffffffffffffffffffffffffffffffff021916908373ffffffffffffffffffffffffffffffffffffffff16021790555060018201548160010155905050816001600260038110610c8a577f4e487b7100000000000000000000000000000000000000000000000000000000600052603260045260246000fd5b6002020160008201518160000160006101000a81548173ffffffffffffffffffffffffffffffffffffffff021916908373ffffffffffffffffffffffffffffffffffffffff160217905550602082015181600101559050505b6001600060038110610d1e577f4e487b7100000000000000000000000000000000000000000000000000000000600052603260045260246000fd5b600202016001015460018060038110610d60577f4e487b7100000000000000000000000000000000000000000000000000000000600052603260045260246000fd5b60020201600101541115610f9f576001600060038110610da9577f4e487b7100000000000000000000000000000000000000000000000000000000600052603260045260246000fd5b600202016040518060400160405290816000820160009054906101000a900473ffffffffffffffffffffffffffffffffffffffff1673ffffffffffffffffffffffffffffffffffffffff1673ffffffffffffffffffffffffffffffffffffffff168152602001600182015481525050915060018060038110610e54577f4e487b7100000000000000000000000000000000000000000000000000000000600052603260045260246000fd5b600202016001600060038110610e93577f4e487b7100000000000000000000000000000000000000000000000000000000600052603260045260246000fd5b600202016000820160009054906101000a900473ffffffffffffffffffffffffffffffffffffffff168160000160006101000a81548173ffffffffffffffffffffffffffffffffffffffff021916908373ffffffffffffffffffffffffffffffffffffffff160217905550600182015481600101559050508160018060038110610f46577f4e487b7100000000000000000000000000000000000000000000000000000000600052603260045260246000fd5b6002020160008201518160000160006101000a81548173ffffffffffffffffffffffffffffffffffffffff021916908373ffffffffffffffffffffffffffffffffffffffff160217905550602082015181600101559050505b8080610faa90611d5c565b91505061075f565b507fec85e9d6bf5716b8dd0a7239a8683ac999293ac2423480882bfbd191116b6d216001604051610fe39190611b96565b60405180910390a150565b6001600060038110611029577f4e487b7100000000000000000000000000000000000000000000000000000000600052603260045260246000fd5b60020201600101546000803373ffffffffffffffffffffffffffffffffffffffff1673ffffffffffffffffffffffffffffffffffffffff16815260200190815260200160002054111561145557600180600381106110b0577f4e487b7100000000000000000000000000000000000000000000000000000000600052603260045260246000fd5b600202016001015460016002600381106110f3577f4e487b7100000000000000000000000000000000000000000000000000000000600052603260045260246000fd5b600202016001018190555060018060038110611138577f4e487b7100000000000000000000000000000000000000000000000000000000600052603260045260246000fd5b6002020160000160009054906101000a900473ffffffffffffffffffffffffffffffffffffffff16600160026003811061119b577f4e487b7100000000000000000000000000000000000000000000000000000000600052603260045260246000fd5b6002020160000160006101000a81548173ffffffffffffffffffffffffffffffffffffffff021916908373ffffffffffffffffffffffffffffffffffffffff160217905550600160006003811061121b577f4e487b7100000000000000000000000000000000000000000000000000000000600052603260045260246000fd5b60020201600101546001806003811061125d577f4e487b7100000000000000000000000000000000000000000000000000000000600052603260045260246000fd5b600202016001018190555060016000600381106112a3577f4e487b7100000000000000000000000000000000000000000000000000000000600052603260045260246000fd5b6002020160000160009054906101000a900473ffffffffffffffffffffffffffffffffffffffff1660018060038110611305577f4e487b7100000000000000000000000000000000000000000000000000000000600052603260045260246000fd5b6002020160000160006101000a81548173ffffffffffffffffffffffffffffffffffffffff021916908373ffffffffffffffffffffffffffffffffffffffff1602179055506000803373ffffffffffffffffffffffffffffffffffffffff1673ffffffffffffffffffffffffffffffffffffffff1681526020019081526020016000205460016000600381106113c4577f4e487b7100000000000000000000000000000000000000000000000000000000600052603260045260246000fd5b600202016001018190555033600160006003811061140b577f4e487b7100000000000000000000000000000000000000000000000000000000600052603260045260246000fd5b6002020160000160006101000a81548173ffffffffffffffffffffffffffffffffffffffff021916908373ffffffffffffffffffffffffffffffffffffffff1602179055506118e0565b6001806003811061148f577f4e487b7100000000000000000000000000000000000000000000000000000000600052603260045260246000fd5b60020201600101546000803373ffffffffffffffffffffffffffffffffffffffff1673ffffffffffffffffffffffffffffffffffffffff16815260200190815260200160002054111561174f5760018060038110611516577f4e487b7100000000000000000000000000000000000000000000000000000000600052603260045260246000fd5b60020201600101546001600260038110611559577f4e487b7100000000000000000000000000000000000000000000000000000000600052603260045260246000fd5b60020201600101819055506001806003811061159e577f4e487b7100000000000000000000000000000000000000000000000000000000600052603260045260246000fd5b6002020160000160009054906101000a900473ffffffffffffffffffffffffffffffffffffffff166001600260038110611601577f4e487b7100000000000000000000000000000000000000000000000000000000600052603260045260246000fd5b6002020160000160006101000a81548173ffffffffffffffffffffffffffffffffffffffff021916908373ffffffffffffffffffffffffffffffffffffffff1602179055506000803373ffffffffffffffffffffffffffffffffffffffff1673ffffffffffffffffffffffffffffffffffffffff16815260200190815260200160002054600180600381106116bf577f4e487b7100000000000000000000000000000000000000000000000000000000600052603260045260246000fd5b60020201600101819055503360018060038110611705577f4e487b7100000000000000000000000000000000000000000000000000000000600052603260045260246000fd5b6002020160000160006101000a81548173ffffffffffffffffffffffffffffffffffffffff021916908373ffffffffffffffffffffffffffffffffffffffff1602179055506118df565b600160026003811061178a577f4e487b7100000000000000000000000000000000000000000000000000000000600052603260045260246000fd5b60020201600101546000803373ffffffffffffffffffffffffffffffffffffffff1673ffffffffffffffffffffffffffffffffffffffff1681526020019081526020016000205411156118de576000803373ffffffffffffffffffffffffffffffffffffffff1673ffffffffffffffffffffffffffffffffffffffff168152602001908152602001600020546001600260038110611851577f4e487b7100000000000000000000000000000000000000000000000000000000600052603260045260246000fd5b6002020160010181905550336001600260038110611898577f4e487b7100000000000000000000000000000000000000000000000000000000600052603260045260246000fd5b6002020160000160006101000a81548173ffffffffffffffffffffffffffffffffffffffff021916908373ffffffffffffffffffffffffffffffffffffffff1602179055505b5b5b7fec85e9d6bf5716b8dd0a7239a8683ac999293ac2423480882bfbd191116b6d2160016040516119109190611b96565b60405180910390a1565b60405180606001604052806003905b611931611947565b8152602001906001900390816119295790505090565b6040518060400160405280600073ffffffffffffffffffffffffffffffffffffffff168152602001600081525090565b60008135905061198681611e59565b92915050565b60006020828403121561199e57600080fd5b60006119ac84828501611977565b91505092915050565b60006119c18383611ae7565b60408301905092915050565b60006119d98383611b16565b60408301905092915050565b6119ee81611cec565b82525050565b6119fd81611c20565b611a078184611c50565b9250611a1282611c0c565b8060005b83811015611a43578151611a2a87826119b5565b9650611a3583611c36565b925050600181019050611a16565b505050505050565b611a5481611c2b565b611a5e8184611c50565b9250611a6982611c16565b8060005b83811015611a995781611a8087826119cd565b9650611a8b83611c43565b925050600181019050611a6d565b505050505050565b6000611aae602683611c5b565b9150611ab982611de1565b604082019050919050565b6000611ad1601283611c5b565b9150611adc82611e30565b602082019050919050565b604082016000820151611afd60008501826119e5565b506020820151611b106020850182611b5d565b50505050565b604082016000808301549050611b2b81611d28565b611b3860008601826119e5565b5060018301549050611b4981611d42565b611b566020860182611b5d565b5050505050565b611b6681611d1e565b82525050565b611b7581611d1e565b82525050565b600060c082019050611b9060008301846119f4565b92915050565b600060c082019050611bab6000830184611a4b565b92915050565b60006020820190508181036000830152611bca81611aa1565b9050919050565b60006020820190508181036000830152611bea81611ac4565b9050919050565b6000602082019050611c066000830184611b6c565b92915050565b6000819050919050565b6000819050919050565b600060039050919050565b600060039050919050565b6000602082019050919050565b6000600282019050919050565b600081905092915050565b600082825260208201905092915050565b6000611c7782611d1e565b9150611c8283611d1e565b9250827fffffffffffffffffffffffffffffffffffffffffffffffffffffffffffffffff03821115611cb757611cb6611da5565b5b828201905092915050565b600073ffffffffffffffffffffffffffffffffffffffff82169050919050565b6000819050919050565b6000611cf782611cfe565b9050919050565b600073ffffffffffffffffffffffffffffffffffffffff82169050919050565b6000819050919050565b6000611d3b611d3683611dd4565b611cc2565b9050919050565b6000611d55611d5083611dd4565b611ce2565b9050919050565b6000611d6782611d1e565b91507fffffffffffffffffffffffffffffffffffffffffffffffffffffffffffffffff821415611d9a57611d99611da5565b5b600182019050919050565b7f4e487b7100000000000000000000000000000000000000000000000000000000600052601160045260246000fd5b60008160001c9050919050565b7f616d6f756e7420746f206c6f772c207370656e64206174206c6561737420302e60008201527f3030316574680000000000000000000000000000000000000000000000000000602082015250565b7f6e756c6c206164647265737320676976656e0000000000000000000000000000600082015250565b611e6281611cec565b8114611e6d57600080fd5b5056fea2646970667358221220683aa61fb4e4cd9f45051da8d88b2298383918034625086a6ed13925b11087a264736f6c63430008040033",
  "linkReferences": {},
  "deployedLinkReferences": {}
}